{
  "contractName": "ExerciseC6CApp",
  "abi": [
    {
      "inputs": [],
      "stateMutability": "nonpayable",
      "type": "constructor"
    },
    {
      "inputs": [
        {
          "internalType": "string",
          "name": "id",
          "type": "string"
        },
        {
          "internalType": "uint256",
          "name": "amount",
          "type": "uint256"
        }
      ],
      "name": "addSale",
      "outputs": [],
      "stateMutability": "nonpayable",
      "type": "function"
    }
  ],
  "bytecode": "0x608060405234801561001057600080fd5b5033600160006101000a81548173ffffffffffffffffffffffffffffffffffffffff021916908373ffffffffffffffffffffffffffffffffffffffff1602179055506108a2806100616000396000f3fe608060405234801561001057600080fd5b506004361061002b5760003560e01c80635cd25e5314610030575b600080fd5b61004a60048036038101906100459190610509565b61004c565b005b600160009054906101000a900473ffffffffffffffffffffffffffffffffffffffff1673ffffffffffffffffffffffffffffffffffffffff163373ffffffffffffffffffffffffffffffffffffffff16146100dc576040517f08c379a00000000000000000000000000000000000000000000000000000000081526004016100d3906105c2565b60405180910390fd5b60008054906101000a900473ffffffffffffffffffffffffffffffffffffffff1673ffffffffffffffffffffffffffffffffffffffff166356b35dd5838361012385610177565b6040518463ffffffff1660e01b81526004016101419392919061065f565b600060405180830381600087803b15801561015b57600080fd5b505af115801561016f573d6000803e3d6000fd5b505050505050565b6000600160009054906101000a900473ffffffffffffffffffffffffffffffffffffffff1673ffffffffffffffffffffffffffffffffffffffff163373ffffffffffffffffffffffffffffffffffffffff1614610209576040517f08c379a0000000000000000000000000000000000000000000000000000000008152600401610200906105c2565b60405180910390fd5b606482101561024057610239606461022b6005856102a790919063ffffffff16565b61032190919063ffffffff16565b90506102a2565b6101f48210156102785761027160646102636007856102a790919063ffffffff16565b61032190919063ffffffff16565b90506102a2565b61029f6064610291600a856102a790919063ffffffff16565b61032190919063ffffffff16565b90505b919050565b60008083036102b9576000905061031b565b600082846102c791906106cc565b90508284826102d6919061073d565b14610316576040517f08c379a000000000000000000000000000000000000000000000000000000000815260040161030d906107e0565b60405180910390fd5b809150505b92915050565b6000808211610365576040517f08c379a000000000000000000000000000000000000000000000000000000000815260040161035c9061084c565b60405180910390fd5b8183610371919061073d565b905092915050565b6000604051905090565b600080fd5b600080fd5b600080fd5b600080fd5b6000601f19601f8301169050919050565b7f4e487b7100000000000000000000000000000000000000000000000000000000600052604160045260246000fd5b6103e082610397565b810181811067ffffffffffffffff821117156103ff576103fe6103a8565b5b80604052505050565b6000610412610379565b905061041e82826103d7565b919050565b600067ffffffffffffffff82111561043e5761043d6103a8565b5b61044782610397565b9050602081019050919050565b82818337600083830152505050565b600061047661047184610423565b610408565b90508281526020810184848401111561049257610491610392565b5b61049d848285610454565b509392505050565b600082601f8301126104ba576104b961038d565b5b81356104ca848260208601610463565b91505092915050565b6000819050919050565b6104e6816104d3565b81146104f157600080fd5b50565b600081359050610503816104dd565b92915050565b600080604083850312156105205761051f610383565b5b600083013567ffffffffffffffff81111561053e5761053d610388565b5b61054a858286016104a5565b925050602061055b858286016104f4565b9150509250929050565b600082825260208201905092915050565b7f43616c6c6572206973206e6f7420636f6e7472616374206f776e657200000000600082015250565b60006105ac601c83610565565b91506105b782610576565b602082019050919050565b600060208201905081810360008301526105db8161059f565b9050919050565b600081519050919050565b60005b8381101561060b5780820151818401526020810190506105f0565b60008484015250505050565b6000610622826105e2565b61062c8185610565565b935061063c8185602086016105ed565b61064581610397565b840191505092915050565b610659816104d3565b82525050565b600060608201905081810360008301526106798186610617565b90506106886020830185610650565b6106956040830184610650565b949350505050565b7f4e487b7100000000000000000000000000000000000000000000000000000000600052601160045260246000fd5b60006106d7826104d3565b91506106e2836104d3565b92508282026106f0816104d3565b915082820484148315176107075761070661069d565b5b5092915050565b7f4e487b7100000000000000000000000000000000000000000000000000000000600052601260045260246000fd5b6000610748826104d3565b9150610753836104d3565b9250826107635761076261070e565b5b828204905092915050565b7f536166654d6174683a206d756c7469706c69636174696f6e206f766572666c6f60008201527f7700000000000000000000000000000000000000000000000000000000000000602082015250565b60006107ca602183610565565b91506107d58261076e565b604082019050919050565b600060208201905081810360008301526107f9816107bd565b9050919050565b7f536166654d6174683a206469766973696f6e206279207a65726f000000000000600082015250565b6000610836601a83610565565b915061084182610800565b602082019050919050565b6000602082019050818103600083015261086581610829565b905091905056fea2646970667358221220b01e8a9cc269e0391887287273d6be0c25c54c1c87f26c65bcf73d340474dd6364736f6c63430008120033",
  "immutableReferences": {},
  "source": "pragma solidity ^0.8.00;\r\n\r\n// It's important to avoid vulnerabilities due to numeric overflow bugs\r\n// OpenZeppelin's SafeMath library, when used correctly, protects agains such bugs\r\n// More info: https://www.nccgroup.trust/us/about-us/newsroom-and-events/blog/2018/november/smart-contract-insecurity-bad-arithmetic/\r\n\r\nimport \"../../node_modules/openzeppelin-solidity/contracts/math/SafeMath.sol\";\r\n\r\n\r\ncontract ExerciseC6CApp {\r\n    using SafeMath for uint256; // Allow SafeMath functions to be called for all uint256 types (similar to \"prototype\" in Javascript)\r\n    ExerciseC6C exerciseC6C;\r\n\r\n    address private contractOwner;              // Account used to deploy contract\r\n\r\n    modifier requireContractOwner()\r\n    {\r\n        require(msg.sender == contractOwner, \"Caller is not contract owner\");\r\n        _;\r\n    }\r\n    \r\n    constructor\r\n                                (\r\n                                ) \r\n                                public \r\n    {\r\n        contractOwner = msg.sender;\r\n    }\r\n\r\n    function calculateBonus\r\n                            (\r\n                                uint256 sales\r\n                            )\r\n                            internal\r\n                            view\r\n                            requireContractOwner\r\n                            returns(uint256)\r\n    {\r\n        if (sales < 100) {\r\n            return sales.mul(5).div(100);\r\n        }\r\n        else if (sales < 500) {\r\n            return sales.mul(7).div(100);\r\n        }\r\n        else {\r\n            return sales.mul(10).div(100);\r\n        }\r\n    }\r\n\r\n    function addSale\r\n                                (\r\n                                    string memory id,\r\n                                    uint256 amount\r\n                                )\r\n                                external\r\n                                requireContractOwner\r\n    {\r\n        exerciseC6C.updateEmployee(\r\n                        id,\r\n                        amount,\r\n                        calculateBonus(amount)\r\n        );\r\n    }\r\n\r\n\r\n\r\n}\r\n\r\ncontract ExerciseC6C {\r\n\r\n        function updateEmployee\r\n                                    (\r\n                                        string memory id,\r\n                                        uint256 sales,\r\n                                        uint256 bonus\r\n\r\n                                    )\r\n                                    external\r\n                                    \r\n        {        \r\n\r\n        }\r\n    }\r\n\r\n\r\n\r\n",
  "sourcePath": "C:\\Users\\shams\\BlockChainTraining\\BCND\\BCND-C6-Exercises\\contracts\\ExerciseC6C\\ExerciseC6CApp.sol",
  "compiler": {
    "name": "solc",
    "version": "0.8.18+commit.87f61d96.Emscripten.clang"
  },
  "schemaVersion": "3.4.11",
  "updatedAt": "2023-02-20T17:12:52.805Z",
  "devdoc": {
    "kind": "dev",
    "methods": {},
    "version": 1
  },
  "userdoc": {
    "kind": "user",
    "methods": {},
    "version": 1
  }
}