{
  "contractName": "ExerciseC6C",
  "abi": [
    {
      "inputs": [
        {
          "internalType": "string",
          "name": "id",
          "type": "string"
        },
        {
          "internalType": "uint256",
          "name": "sales",
          "type": "uint256"
        },
        {
          "internalType": "uint256",
          "name": "bonus",
          "type": "uint256"
        }
      ],
      "name": "updateEmployee",
      "outputs": [],
      "stateMutability": "nonpayable",
      "type": "function"
    }
  ],
  "bytecode": "0x608060405234801561001057600080fd5b50610286806100206000396000f3fe608060405234801561001057600080fd5b506004361061002b5760003560e01c806356b35dd514610030575b600080fd5b61004a600480360381019061004591906101e1565b61004c565b005b505050565b6000604051905090565b600080fd5b600080fd5b600080fd5b600080fd5b6000601f19601f8301169050919050565b7f4e487b7100000000000000000000000000000000000000000000000000000000600052604160045260246000fd5b6100b88261006f565b810181811067ffffffffffffffff821117156100d7576100d6610080565b5b80604052505050565b60006100ea610051565b90506100f682826100af565b919050565b600067ffffffffffffffff82111561011657610115610080565b5b61011f8261006f565b9050602081019050919050565b82818337600083830152505050565b600061014e610149846100fb565b6100e0565b90508281526020810184848401111561016a5761016961006a565b5b61017584828561012c565b509392505050565b600082601f83011261019257610191610065565b5b81356101a284826020860161013b565b91505092915050565b6000819050919050565b6101be816101ab565b81146101c957600080fd5b50565b6000813590506101db816101b5565b92915050565b6000806000606084860312156101fa576101f961005b565b5b600084013567ffffffffffffffff81111561021857610217610060565b5b6102248682870161017d565b9350506020610235868287016101cc565b9250506040610246868287016101cc565b915050925092509256fea2646970667358221220b163798958eb2804f354dfb9c8c33a5d1afa6f907f2d521eb675ae8f8065af6164736f6c63430008120033",
  "immutableReferences": {},
  "source": "pragma solidity ^0.8.00;\r\n\r\n// It's important to avoid vulnerabilities due to numeric overflow bugs\r\n// OpenZeppelin's SafeMath library, when used correctly, protects agains such bugs\r\n// More info: https://www.nccgroup.trust/us/about-us/newsroom-and-events/blog/2018/november/smart-contract-insecurity-bad-arithmetic/\r\n\r\nimport \"../../node_modules/openzeppelin-solidity/contracts/math/SafeMath.sol\";\r\n\r\n\r\ncontract ExerciseC6CApp {\r\n    using SafeMath for uint256; // Allow SafeMath functions to be called for all uint256 types (similar to \"prototype\" in Javascript)\r\n    ExerciseC6C exerciseC6C;\r\n\r\n    address private contractOwner;              // Account used to deploy contract\r\n\r\n    modifier requireContractOwner()\r\n    {\r\n        require(msg.sender == contractOwner, \"Caller is not contract owner\");\r\n        _;\r\n    }\r\n    \r\n    constructor\r\n                                (\r\n                                ) \r\n                                public \r\n    {\r\n        contractOwner = msg.sender;\r\n    }\r\n\r\n    function calculateBonus\r\n                            (\r\n                                uint256 sales\r\n                            )\r\n                            internal\r\n                            view\r\n                            requireContractOwner\r\n                            returns(uint256)\r\n    {\r\n        if (sales < 100) {\r\n            return sales.mul(5).div(100);\r\n        }\r\n        else if (sales < 500) {\r\n            return sales.mul(7).div(100);\r\n        }\r\n        else {\r\n            return sales.mul(10).div(100);\r\n        }\r\n    }\r\n\r\n    function addSale\r\n                                (\r\n                                    string memory id,\r\n                                    uint256 amount\r\n                                )\r\n                                external\r\n                                requireContractOwner\r\n    {\r\n        exerciseC6C.updateEmployee(\r\n                        id,\r\n                        amount,\r\n                        calculateBonus(amount)\r\n        );\r\n    }\r\n\r\n\r\n\r\n}\r\n\r\ncontract ExerciseC6C {\r\n\r\n        function updateEmployee\r\n                                    (\r\n                                        string memory id,\r\n                                        uint256 sales,\r\n                                        uint256 bonus\r\n\r\n                                    )\r\n                                    external\r\n                                    \r\n        {        \r\n\r\n        }\r\n    }\r\n\r\n\r\n\r\n",
  "sourcePath": "C:\\Users\\shams\\BlockChainTraining\\BCND\\BCND-C6-Exercises\\contracts\\ExerciseC6C\\ExerciseC6CApp.sol",
  "compiler": {
    "name": "solc",
    "version": "0.8.18+commit.87f61d96.Emscripten.clang"
  },
  "schemaVersion": "3.4.11",
  "updatedAt": "2023-02-20T17:12:52.802Z",
  "devdoc": {
    "kind": "dev",
    "methods": {},
    "version": 1
  },
  "userdoc": {
    "kind": "user",
    "methods": {},
    "version": 1
  }
}